{
    "_format": "hh-sol-artifact-1",
    "contractName": "Secure",
    "sourceName": "contracts/secure.sol",
    "abi": [
        {
            "inputs": [],
            "stateMutability": "nonpayable",
            "type": "constructor"
        },
        {
            "inputs": [
                {
                    "internalType": "string",
                    "name": "_name",
                    "type": "string"
                },
                {
                    "internalType": "string",
                    "name": "_about",
                    "type": "string"
                },
                {
                    "internalType": "string",
                    "name": "_describe",
                    "type": "string"
                }
            ],
            "name": "addPerson",
            "outputs": [],
            "stateMutability": "nonpayable",
            "type": "function"
        },
        {
            "inputs": [
                {
                    "internalType": "uint256",
                    "name": "index",
                    "type": "uint256"
                }
            ],
            "name": "addvote",
            "outputs": [],
            "stateMutability": "nonpayable",
            "type": "function"
        },
        {
            "inputs": [],
            "name": "endPoll",
            "outputs": [],
            "stateMutability": "nonpayable",
            "type": "function"
        },
        {
            "inputs": [
                {
                    "internalType": "uint256",
                    "name": "index",
                    "type": "uint256"
                }
            ],
            "name": "getdataabout",
            "outputs": [
                {
                    "internalType": "string",
                    "name": "",
                    "type": "string"
                }
            ],
            "stateMutability": "view",
            "type": "function"
        },
        {
            "inputs": [
                {
                    "internalType": "uint256",
                    "name": "index",
                    "type": "uint256"
                }
            ],
            "name": "getdatadescribe",
            "outputs": [
                {
                    "internalType": "string",
                    "name": "",
                    "type": "string"
                }
            ],
            "stateMutability": "view",
            "type": "function"
        },
        {
            "inputs": [
                {
                    "internalType": "uint256",
                    "name": "index",
                    "type": "uint256"
                }
            ],
            "name": "getdataname",
            "outputs": [
                {
                    "internalType": "string",
                    "name": "",
                    "type": "string"
                }
            ],
            "stateMutability": "view",
            "type": "function"
        },
        {
            "inputs": [
                {
                    "internalType": "uint256",
                    "name": "index",
                    "type": "uint256"
                }
            ],
            "name": "getvotes",
            "outputs": [
                {
                    "internalType": "uint256",
                    "name": "",
                    "type": "uint256"
                }
            ],
            "stateMutability": "view",
            "type": "function"
        },
        {
            "inputs": [
                {
                    "internalType": "uint256",
                    "name": "",
                    "type": "uint256"
                }
            ],
            "name": "identity",
            "outputs": [
                {
                    "internalType": "uint256",
                    "name": "votes",
                    "type": "uint256"
                },
                {
                    "internalType": "string",
                    "name": "name",
                    "type": "string"
                },
                {
                    "internalType": "string",
                    "name": "about",
                    "type": "string"
                },
                {
                    "internalType": "string",
                    "name": "describe",
                    "type": "string"
                }
            ],
            "stateMutability": "view",
            "type": "function"
        },
        {
            "inputs": [],
            "name": "retrievevoters",
            "outputs": [
                {
                    "internalType": "address[]",
                    "name": "",
                    "type": "address[]"
                }
            ],
            "stateMutability": "view",
            "type": "function"
        },
        {
            "inputs": [
                {
                    "internalType": "uint256",
                    "name": "",
                    "type": "uint256"
                }
            ],
            "name": "voters",
            "outputs": [
                {
                    "internalType": "address",
                    "name": "",
                    "type": "address"
                }
            ],
            "stateMutability": "view",
            "type": "function"
        },
        {
            "inputs": [],
            "name": "winner",
            "outputs": [
                {
                    "internalType": "uint256",
                    "name": "",
                    "type": "uint256"
                },
                {
                    "internalType": "uint256",
                    "name": "",
                    "type": "uint256"
                }
            ],
            "stateMutability": "view",
            "type": "function"
        }
    ],
    "bytecode": "0x60806040523480156200001157600080fd5b5062000041604051806060016040528060258152602001620016ce602591396200008760201b62000a521760201c565b336000806101000a81548173ffffffffffffffffffffffffffffffffffffffff021916908373ffffffffffffffffffffffffffffffffffffffff16021790555062000211565b62000127816040516024016200009e9190620001ed565b6040516020818303038152906040527f41304fac000000000000000000000000000000000000000000000000000000007bffffffffffffffffffffffffffffffffffffffffffffffffffffffff19166020820180517bffffffffffffffffffffffffffffffffffffffffffffffffffffffff83818316178352505050506200012a60201b60201c565b50565b60008151905060006a636f6e736f6c652e6c6f679050602083016000808483855afa5050505050565b600081519050919050565b600082825260208201905092915050565b60005b838110156200018f57808201518184015260208101905062000172565b60008484015250505050565b6000601f19601f8301169050919050565b6000620001b98262000153565b620001c581856200015e565b9350620001d78185602086016200016f565b620001e2816200019b565b840191505092915050565b60006020820190508181036000830152620002098184620001ac565b905092915050565b6114ad80620002216000396000f3fe608060405234801561001057600080fd5b50600436106100a95760003560e01c8063b140a9d611610071578063b140a9d614610153578063cf7cb23914610183578063da58c7d9146101a1578063dfbf53ae146101d1578063e130c71a146101f0578063e74997e914610220576100a9565b80630671cc3c146100ae578063200bbd82146100ca5780638d99b2eb146100e65780639a73b56a146100f0578063ac37eebb14610120575b600080fd5b6100c860048036038101906100c39190610d5f565b610250565b005b6100e460048036038101906100df9190610e3c565b610344565b005b6100ee610431565b005b61010a60048036038101906101059190610e3c565b6104a3565b6040516101179190610ee8565b60405180910390f35b61013a60048036038101906101359190610e3c565b610560565b60405161014a9493929190610f19565b60405180910390f35b61016d60048036038101906101689190610e3c565b610738565b60405161017a9190610ee8565b60405180910390f35b61018b6107f5565b6040516101989190611063565b60405180910390f35b6101bb60048036038101906101b69190610e3c565b610883565b6040516101c89190611094565b60405180910390f35b6101d96108c2565b6040516101e79291906110af565b60405180910390f35b61020a60048036038101906102059190610e3c565b61091b565b60405161021791906110d8565b60405180910390f35b61023a60048036038101906102359190610e3c565b610995565b6040516102479190610ee8565b60405180910390f35b60008054906101000a900473ffffffffffffffffffffffffffffffffffffffff1673ffffffffffffffffffffffffffffffffffffffff163373ffffffffffffffffffffffffffffffffffffffff160361033f57600260405180608001604052806000815260200185815260200184815260200183815250908060018154018082558091505060019003906000526020600020906004020160009091909190915060008201518160000155602082015181600101908161030f91906112ff565b50604082015181600201908161032591906112ff565b50606082015181600301908161033b91906112ff565b5050505b505050565b6000600280549050036103905761038f6040518060400160405280601181526020017f6e6f206964656e74697479206578697374000000000000000000000000000000815250610a52565b5b6001339080600181540180825580915050600190039060005260206000200160009091909190916101000a81548173ffffffffffffffffffffffffffffffffffffffff021916908373ffffffffffffffffffffffffffffffffffffffff16021790555060028181548110610407576104066113d1565b5b906000526020600020906004020160000160008154809291906104299061142f565b919050555050565b60008054906101000a900473ffffffffffffffffffffffffffffffffffffffff1673ffffffffffffffffffffffffffffffffffffffff163373ffffffffffffffffffffffffffffffffffffffff16036104a157600260006104929190610b14565b600160006104a09190610b38565b5b565b60606000600283815481106104bb576104ba6113d1565b5b906000526020600020906004020190508060010180546104da90611122565b80601f016020809104026020016040519081016040528092919081815260200182805461050690611122565b80156105535780601f1061052857610100808354040283529160200191610553565b820191906000526020600020905b81548152906001019060200180831161053657829003601f168201915b5050505050915050919050565b6002818154811061057057600080fd5b906000526020600020906004020160009150905080600001549080600101805461059990611122565b80601f01602080910402602001604051908101604052809291908181526020018280546105c590611122565b80156106125780601f106105e757610100808354040283529160200191610612565b820191906000526020600020905b8154815290600101906020018083116105f557829003601f168201915b50505050509080600201805461062790611122565b80601f016020809104026020016040519081016040528092919081815260200182805461065390611122565b80156106a05780601f10610675576101008083540402835291602001916106a0565b820191906000526020600020905b81548152906001019060200180831161068357829003601f168201915b5050505050908060030180546106b590611122565b80601f01602080910402602001604051908101604052809291908181526020018280546106e190611122565b801561072e5780601f106107035761010080835404028352916020019161072e565b820191906000526020600020905b81548152906001019060200180831161071157829003601f168201915b5050505050905084565b60606000600283815481106107505761074f6113d1565b5b9060005260206000209060040201905080600301805461076f90611122565b80601f016020809104026020016040519081016040528092919081815260200182805461079b90611122565b80156107e85780601f106107bd576101008083540402835291602001916107e8565b820191906000526020600020905b8154815290600101906020018083116107cb57829003601f168201915b5050505050915050919050565b6060600180548060200260200160405190810160405280929190818152602001828054801561087957602002820191906000526020600020905b8160009054906101000a900473ffffffffffffffffffffffffffffffffffffffff1673ffffffffffffffffffffffffffffffffffffffff168152602001906001019080831161082f575b5050505050905090565b6001818154811061089357600080fd5b906000526020600020016000915054906101000a900473ffffffffffffffffffffffffffffffffffffffff1681565b60008060026000815481106108da576108d96113d1565b5b9060005260206000209060040201600001546002600181548110610901576109006113d1565b5b906000526020600020906004020160000154915091509091565b60008060028054905003610968576109676040518060400160405280601181526020017f6e6f206964656e74697479206578697374000000000000000000000000000000815250610a52565b5b6002828154811061097c5761097b6113d1565b5b9060005260206000209060040201600001549050919050565b60606000600283815481106109ad576109ac6113d1565b5b906000526020600020906004020190508060020180546109cc90611122565b80601f01602080910402602001604051908101604052809291908181526020018280546109f890611122565b8015610a455780601f10610a1a57610100808354040283529160200191610a45565b820191906000526020600020905b815481529060010190602001808311610a2857829003601f168201915b5050505050915050919050565b610ae881604051602401610a669190610ee8565b6040516020818303038152906040527f41304fac000000000000000000000000000000000000000000000000000000007bffffffffffffffffffffffffffffffffffffffffffffffffffffffff19166020820180517bffffffffffffffffffffffffffffffffffffffffffffffffffffffff8381831617835250505050610aeb565b50565b60008151905060006a636f6e736f6c652e6c6f679050602083016000808483855afa5050505050565b5080546000825560040290600052602060002090810190610b359190610b59565b50565b5080546000825590600052602060002090810190610b569190610ba8565b50565b5b80821115610ba457600080820160009055600182016000610b7b9190610bc5565b600282016000610b8b9190610bc5565b600382016000610b9b9190610bc5565b50600401610b5a565b5090565b5b80821115610bc1576000816000905550600101610ba9565b5090565b508054610bd190611122565b6000825580601f10610be35750610c02565b601f016020900490600052602060002090810190610c019190610ba8565b5b50565b6000604051905090565b600080fd5b600080fd5b600080fd5b600080fd5b6000601f19601f8301169050919050565b7f4e487b7100000000000000000000000000000000000000000000000000000000600052604160045260246000fd5b610c6c82610c23565b810181811067ffffffffffffffff82111715610c8b57610c8a610c34565b5b80604052505050565b6000610c9e610c05565b9050610caa8282610c63565b919050565b600067ffffffffffffffff821115610cca57610cc9610c34565b5b610cd382610c23565b9050602081019050919050565b82818337600083830152505050565b6000610d02610cfd84610caf565b610c94565b905082815260208101848484011115610d1e57610d1d610c1e565b5b610d29848285610ce0565b509392505050565b600082601f830112610d4657610d45610c19565b5b8135610d56848260208601610cef565b91505092915050565b600080600060608486031215610d7857610d77610c0f565b5b600084013567ffffffffffffffff811115610d9657610d95610c14565b5b610da286828701610d31565b935050602084013567ffffffffffffffff811115610dc357610dc2610c14565b5b610dcf86828701610d31565b925050604084013567ffffffffffffffff811115610df057610def610c14565b5b610dfc86828701610d31565b9150509250925092565b6000819050919050565b610e1981610e06565b8114610e2457600080fd5b50565b600081359050610e3681610e10565b92915050565b600060208284031215610e5257610e51610c0f565b5b6000610e6084828501610e27565b91505092915050565b600081519050919050565b600082825260208201905092915050565b60005b83811015610ea3578082015181840152602081019050610e88565b60008484015250505050565b6000610eba82610e69565b610ec48185610e74565b9350610ed4818560208601610e85565b610edd81610c23565b840191505092915050565b60006020820190508181036000830152610f028184610eaf565b905092915050565b610f1381610e06565b82525050565b6000608082019050610f2e6000830187610f0a565b8181036020830152610f408186610eaf565b90508181036040830152610f548185610eaf565b90508181036060830152610f688184610eaf565b905095945050505050565b600081519050919050565b600082825260208201905092915050565b6000819050602082019050919050565b600073ffffffffffffffffffffffffffffffffffffffff82169050919050565b6000610fca82610f9f565b9050919050565b610fda81610fbf565b82525050565b6000610fec8383610fd1565b60208301905092915050565b6000602082019050919050565b600061101082610f73565b61101a8185610f7e565b935061102583610f8f565b8060005b8381101561105657815161103d8882610fe0565b975061104883610ff8565b925050600181019050611029565b5085935050505092915050565b6000602082019050818103600083015261107d8184611005565b905092915050565b61108e81610fbf565b82525050565b60006020820190506110a96000830184611085565b92915050565b60006040820190506110c46000830185610f0a565b6110d16020830184610f0a565b9392505050565b60006020820190506110ed6000830184610f0a565b92915050565b7f4e487b7100000000000000000000000000000000000000000000000000000000600052602260045260246000fd5b6000600282049050600182168061113a57607f821691505b60208210810361114d5761114c6110f3565b5b50919050565b60008190508160005260206000209050919050565b60006020601f8301049050919050565b600082821b905092915050565b6000600883026111b57fffffffffffffffffffffffffffffffffffffffffffffffffffffffffffffffff82611178565b6111bf8683611178565b95508019841693508086168417925050509392505050565b6000819050919050565b60006111fc6111f76111f284610e06565b6111d7565b610e06565b9050919050565b6000819050919050565b611216836111e1565b61122a61122282611203565b848454611185565b825550505050565b600090565b61123f611232565b61124a81848461120d565b505050565b5b8181101561126e57611263600082611237565b600181019050611250565b5050565b601f8211156112b35761128481611153565b61128d84611168565b8101602085101561129c578190505b6112b06112a885611168565b83018261124f565b50505b505050565b600082821c905092915050565b60006112d6600019846008026112b8565b1980831691505092915050565b60006112ef83836112c5565b9150826002028217905092915050565b61130882610e69565b67ffffffffffffffff81111561132157611320610c34565b5b61132b8254611122565b611336828285611272565b600060209050601f8311600181146113695760008415611357578287015190505b61136185826112e3565b8655506113c9565b601f19841661137786611153565b60005b8281101561139f5784890151825560018201915060208501945060208101905061137a565b868310156113bc57848901516113b8601f8916826112c5565b8355505b6001600288020188555050505b505050505050565b7f4e487b7100000000000000000000000000000000000000000000000000000000600052603260045260246000fd5b7f4e487b7100000000000000000000000000000000000000000000000000000000600052601160045260246000fd5b600061143a82610e06565b91507fffffffffffffffffffffffffffffffffffffffffffffffffffffffffffffffff820361146c5761146b611400565b5b60018201905091905056fea2646970667358221220519413d0c202eeb6ecb0afe61cd22ed2dbed7b78584b5e107002ebde9ed3f7da64736f6c63430008110033596f20796f2c204920616d206120636f6e747261637420616e64204920616d20736d617274",
    "linkReferences": {},
    "deployedLinkReferences": {}
}